
Market Order

8=FIX.4.2;9=207;35=D;34=535;49=1T1234N;52=20130812-11:26:40.313;56=CME;1=4895;11=MO//W1000001;21=1;38=5;40=1;50=1234;54=1;55=EBPM4;57=G;59=0;60=20130812-11:26:40;107=EBPM4;142=IN;167=FUT;204=1;1028=N;9702=1;10=220;
NOT SUPPORTED


Limit Order AMEND

8=FIX.4.2;9=207;35=D;34=535;49=1T1234N;52=20130812-11:26:40.313;56=CME;1=4895;11=ABC//W1000001;21=1;38=5;40=2;44=9950.000000;50=1234;54=1;55=EBPM4;57=G;59=0;60=20130812-11:26:40;107=EBPM4;142=IN;167=FUT;204=1;1028=N;9702=1;10=220;
8=FIX.4.2;9=240;35=G;34=537;49=1T1234N;52=20130812-11:27:20.165;56=CME;1=4895;11=ABC//W1000001-1;21=1;37=82129324955;38=10;40=2;41=ABC//W1000001;44=9950.000000;50=1234;54=1;55=EBPM4;57=G;59=0;60=20130812-11:27:20;107=EBPM4;142=IN;167=FUT;204=1;1028=N;9702=1;10=103;
8=FIX.4.2;9=240;35=G;34=539;49=1T1234N;52=20130812-11:28:04.831;56=CME;1=4895;11=ABC//W1000001-2;21=1;37=82129324955;38=10;40=2;41=ABC//W1000001-1;44=9951.000000;50=1234;54=1;55=EBPM4;57=G;59=0;60=20130812-11:28:04;107=EBPM4;142=IN;167=FUT;204=1;1028=N;9702=1;10=112;
8=FIX.4.2;9=239;35=G;34=541;49=1T1234N;52=20130812-11:28:37.614;56=CME;1=4895;11=ABC//W1000001-3;21=1;37=82129324955;38=5;40=2;41=ABC//W1000001-2;44=9950.000000;50=1234;54=1;55=EBPM4;57=G;59=0;60=20130812-11:28:37;107=EBPM4;142=IN;167=FUT;204=1;1028=N;9702=1;10=079;


Spread Order - limit, day
8=FIX.4.2|9=217|35=D|34=279|49=1T1234N|52=20130812-09:24:42.032|56=CME|1=4895|11=ABC//P1000001|21=1|38=5|40=2|44=13.000000|50=1234|54=1|55=EBPM5-EBPH5|57=G|59=0|60=20130812-09:24:42|107=EBPM5-EBPH5|142=IN|167=FUT|204=1|1028=N|9702=1|10=088

8=FIX.4.2|9=285|35=8|34=289|369=279|52=20130812-09:26:58.064|49=CME|50=G|56=1T1234N|57=1234|143=IN|1=4895|6=0|11=ABC//P1000001|14=0|17=82213:266456|20=0|37=82129307769|38=5|39=0|40=2|41=0|44=13|48=998520|54=1|55=90|59=0|60=20130812-09:26:58.065|107=EBPM5-EBPH5|150=0|151=5|167=FUT|432=20130812|1028=N|10=105

fill
8=FIX.4.2|9=384|35=8|34=290|369=279|52=20130812-09:26:58.079|49=CME|50=G|56=1T1234N|57=1234|143=IN|1=4895|6=0|11=ABC//P1000001|14=5|17=82213:266458TN0000005|20=0|31=13|32=5|37=82129307769|38=5|39=2|40=2|41=0|44=13|48=998520|54=1|55=90|59=0|60=20130812-09:26:58.079|75=20130812|107=EBPM5-EBPH5|150=2|151=0|167=FUT|337=TRADE|375=CME000A|393=2|432=20130812|442=3|527=I1T51k89ylq5201308125|1028=N|1057=N|10=000
393=2 ... number of leg fill acks
442=3  .. spread
31=13
32=5

fill leg1
8=FIX.4.2|9=332|35=8|34=291|369=279|52=20130812-09:26:58.079|49=CME|50=G|56=1T1234N|57=1234|143=IN|1=4895|6=0|11=ABC//P1000001|14=5|17=82213:266460TN0000013|20=0|31=9950|32=5|37=82129307769|39=2|40=2|41=0|48=998490|54=1|55=90|60=20130812-09:26:58.079|75=20130812|107=EBPM5|150=2|167=FUT|337=TRADE|375=CME000A|442=2|527=I1T51k89ylq5201308125|1028=N|10=095
442=2 .. leg of spread
107=EBPM5
31=9950  ... last price
32=5

fill leg2
8=FIX.4.2|9=332|35=8|34=292|369=279|52=20130812-09:26:58.079|49=CME|50=G|56=1T1234N|57=1234|143=IN|1=4895|6=0|11=ABC//P1000001|14=5|17=82213:266462TN0000006|20=0|31=9937|32=5|37=82129307769|39=2|40=2|41=0|48=998500|54=2|55=90|60=20130812-09:26:58.079|75=20130812|107=EBPH5|150=2|167=FUT|337=TRADE|375=CME000A|442=2|527=I1T51k89ylq5201308125|1028=N|10=106
442=2 .. leg of spread
107=EBPH5
31=9937
32=5



