8=FIX.4.4;9=153;35=D;49=WARMUPCLIENT1;56=LLT1_IN;52=20100510-13:00:50.316;34=859;40=2;54=1;55=X;11=CLIENTXX1117581626;21=1;60=20100510-13:00:50.316;38=2;44=142.11;59=0;22=5;48=25200;100=d;10=202;